{
  "_format": "hh-sol-artifact-1",
  "contractName": "VerdictRegistry",
  "sourceName": "src/VerdictRegistry.sol",
  "abi": [
    {
      "anonymous": false,
      "inputs": [
        {
          "indexed": true,
          "internalType": "uint256",
          "name": "id",
          "type": "uint256"
        },
        {
          "indexed": true,
          "internalType": "address",
          "name": "author",
          "type": "address"
        },
        {
          "indexed": true,
          "internalType": "bytes32",
          "name": "transcriptHash",
          "type": "bytes32"
        },
        {
          "indexed": false,
          "internalType": "enum VerdictRegistry.Mode",
          "name": "mode",
          "type": "uint8"
        },
        {
          "indexed": false,
          "internalType": "string",
          "name": "storageRoot",
          "type": "string"
        }
      ],
      "name": "DebateRecorded",
      "type": "event"
    },
    {
      "inputs": [
        {
          "internalType": "uint256",
          "name": "id",
          "type": "uint256"
        }
      ],
      "name": "getRecord",
      "outputs": [
        {
          "components": [
            {
              "internalType": "address",
              "name": "author",
              "type": "address"
            },
            {
              "internalType": "bytes32",
              "name": "transcriptHash",
              "type": "bytes32"
            },
            {
              "internalType": "string",
              "name": "storageRoot",
              "type": "string"
            },
            {
              "internalType": "string",
              "name": "topic",
              "type": "string"
            },
            {
              "internalType": "string",
              "name": "winner",
              "type": "string"
            },
            {
              "internalType": "enum VerdictRegistry.Mode",
              "name": "mode",
              "type": "uint8"
            },
            {
              "internalType": "uint64",
              "name": "timestamp",
              "type": "uint64"
            }
          ],
          "internalType": "struct VerdictRegistry.Record",
          "name": "",
          "type": "tuple"
        }
      ],
      "stateMutability": "view",
      "type": "function"
    },
    {
      "inputs": [
        {
          "internalType": "bytes32",
          "name": "transcriptHash",
          "type": "bytes32"
        },
        {
          "internalType": "string",
          "name": "storageRoot",
          "type": "string"
        },
        {
          "internalType": "string",
          "name": "topic",
          "type": "string"
        },
        {
          "internalType": "string",
          "name": "winner",
          "type": "string"
        },
        {
          "internalType": "enum VerdictRegistry.Mode",
          "name": "mode",
          "type": "uint8"
        }
      ],
      "name": "recordDebate",
      "outputs": [
        {
          "internalType": "uint256",
          "name": "id",
          "type": "uint256"
        }
      ],
      "stateMutability": "nonpayable",
      "type": "function"
    },
    {
      "inputs": [],
      "name": "totalRecords",
      "outputs": [
        {
          "internalType": "uint256",
          "name": "",
          "type": "uint256"
        }
      ],
      "stateMutability": "view",
      "type": "function"
    },
    {
      "inputs": [
        {
          "internalType": "uint256",
          "name": "id",
          "type": "uint256"
        },
        {
          "internalType": "bytes32",
          "name": "transcriptHash",
          "type": "bytes32"
        }
      ],
      "name": "verify",
      "outputs": [
        {
          "internalType": "bool",
          "name": "",
          "type": "bool"
        }
      ],
      "stateMutability": "view",
      "type": "function"
    }
  ],
  "bytecode": "0x608060405234801561001057600080fd5b50610a85806100206000396000f3fe608060405234801561001057600080fd5b506004361061004c5760003560e01c806303e9e60914610051578063125f89741461007a5780631c64b9f91461008c5780631d97ce311461009f575b600080fd5b61006461005f366004610635565b6100c2565b60405161007191906106cc565b60405180910390f35b6000545b604051908152602001610071565b61007e61009a3660046107be565b610379565b6100b26100ad366004610879565b610599565b6040519015158152602001610071565b6100ca6105db565b600054821061010b5760405162461bcd60e51b81526020600482015260096024820152681b9bdd08199bdd5b9960ba1b604482015260640160405180910390fd5b6000828154811061011e5761011e61089b565b90600052602060002090600602016040518060e00160405290816000820160009054906101000a90046001600160a01b03166001600160a01b03166001600160a01b0316815260200160018201548152602001600282018054610180906108b1565b80601f01602080910402602001604051908101604052809291908181526020018280546101ac906108b1565b80156101f95780601f106101ce576101008083540402835291602001916101f9565b820191906000526020600020905b8154815290600101906020018083116101dc57829003601f168201915b50505050508152602001600382018054610212906108b1565b80601f016020809104026020016040519081016040528092919081815260200182805461023e906108b1565b801561028b5780601f106102605761010080835404028352916020019161028b565b820191906000526020600020905b81548152906001019060200180831161026e57829003601f168201915b505050505081526020016004820180546102a4906108b1565b80601f01602080910402602001604051908101604052809291908181526020018280546102d0906108b1565b801561031d5780601f106102f25761010080835404028352916020019161031d565b820191906000526020600020905b81548152906001019060200180831161030057829003601f168201915b5050509183525050600582015460209091019060ff16600181111561034457610344610694565b600181111561035557610355610694565b815260059190910154610100900467ffffffffffffffff1660209091015292915050565b600080546040805160e08101825233815260208082018d90528251601f8c0182900482028101820184528b81529394939192830191908c908c9081908401838280828437600092019190915250505090825250604080516020601f8b0181900481028201810190925289815291810191908a908a9081908401838280828437600092019190915250505090825250604080516020601f89018190048102820181019092528781529181019190889088908190840183828082843760009201919091525050509082525060200184600181111561045757610457610694565b81524267ffffffffffffffff16602091820152825460018082018555600094855293829020835160069092020180546001600160a01b0319166001600160a01b039092169190911781559082015192810192909255604081015190919060028201906104c39082610952565b50606082015160038201906104d89082610952565b50608082015160048201906104ed9082610952565b5060a082015160058201805460ff19166001838181111561051057610510610694565b021790555060c08201518160050160016101000a81548167ffffffffffffffff021916908367ffffffffffffffff160217905550505088336001600160a01b0316827f74ac63b77bc16c389569a8aeaefd87f9fc895c740bcdc1b869d9c6e08c9e1ccb858c8c60405161058593929190610a12565b60405180910390a498975050505050505050565b6000805483106105ab575060006105d5565b81600084815481106105bf576105bf61089b565b9060005260206000209060060201600101541490505b92915050565b6040518060e0016040528060006001600160a01b03168152602001600080191681526020016060815260200160608152602001606081526020016000600181111561062857610628610694565b8152600060209091015290565b60006020828403121561064757600080fd5b5035919050565b6000815180845260005b8181101561067457602081850181015186830182015201610658565b506000602082860101526020601f19601f83011685010191505092915050565b634e487b7160e01b600052602160045260246000fd5b600281106106c857634e487b7160e01b600052602160045260246000fd5b9052565b6020815260018060a01b038251166020820152602082015160408201526000604083015160e0606084015261070561010084018261064e565b90506060840151601f1980858403016080860152610723838361064e565b925060808601519150808584030160a086015250610741828261064e565b91505060a084015161075660c08501826106aa565b5067ffffffffffffffff60c08501511660e08401528091505092915050565b60008083601f84011261078757600080fd5b50813567ffffffffffffffff81111561079f57600080fd5b6020830191508360208285010111156107b757600080fd5b9250929050565b60008060008060008060008060a0898b0312156107da57600080fd5b88359750602089013567ffffffffffffffff808211156107f957600080fd5b6108058c838d01610775565b909950975060408b013591508082111561081e57600080fd5b61082a8c838d01610775565b909750955060608b013591508082111561084357600080fd5b506108508b828c01610775565b90945092505060808901356002811061086857600080fd5b809150509295985092959890939650565b6000806040838503121561088c57600080fd5b50508035926020909101359150565b634e487b7160e01b600052603260045260246000fd5b600181811c908216806108c557607f821691505b6020821081036108e557634e487b7160e01b600052602260045260246000fd5b50919050565b634e487b7160e01b600052604160045260246000fd5b601f82111561094d576000816000526020600020601f850160051c8101602086101561092a5750805b601f850160051c820191505b8181101561094957828155600101610936565b5050505b505050565b815167ffffffffffffffff81111561096c5761096c6108eb565b6109808161097a84546108b1565b84610901565b602080601f8311600181146109b5576000841561099d5750858301515b600019600386901b1c1916600185901b178555610949565b600085815260208120601f198616915b828110156109e4578886015182559484019460019091019084016109c5565b5085821015610a025787850151600019600388901b60f8161c191681555b5050505050600190811b01905550565b610a1c81856106aa565b60406020820152816040820152818360608301376000818301606090810191909152601f909201601f191601019291505056fea264697066735822122008f98f5552dc859868f02b412ac3aa74bd35e7c46a113819de9300d259a7d90b64736f6c63430008180033",
  "linkReferences": {},
  "deployedLinkReferences": {}
}